{
  "contractName": "Consumer",
  "abi": [
    {
      "inputs": [
        {
          "internalType": "contract IOracle",
          "name": "_oracle",
          "type": "address"
        }
      ],
      "stateMutability": "nonpayable",
      "type": "constructor"
    },
    {
      "inputs": [],
      "name": "oracle",
      "outputs": [
        {
          "internalType": "contract IOracle",
          "name": "",
          "type": "address"
        }
      ],
      "stateMutability": "view",
      "type": "function"
    },
    {
      "inputs": [],
      "name": "foo",
      "outputs": [],
      "stateMutability": "view",
      "type": "function"
    }
  ],
  "bytecode": "0x608060405234801561000f575f80fd5b50604051610663380380610663833981810160405281019061003191906100e5565b805f806101000a81548173ffffffffffffffffffffffffffffffffffffffff021916908373ffffffffffffffffffffffffffffffffffffffff16021790555050610110565b5f80fd5b5f73ffffffffffffffffffffffffffffffffffffffff82169050919050565b5f6100a38261007a565b9050919050565b5f6100b482610099565b9050919050565b6100c4816100aa565b81146100ce575f80fd5b50565b5f815190506100df816100bb565b92915050565b5f602082840312156100fa576100f9610076565b5b5f610107848285016100d1565b91505092915050565b6105468061011d5f395ff3fe608060405234801561000f575f80fd5b5060043610610034575f3560e01c80637dc0d1d014610038578063c298557814610056575b5f80fd5b610040610060565b60405161004d9190610262565b60405180910390f35b61005e610083565b005b5f8054906101000a900473ffffffffffffffffffffffffffffffffffffffff1681565b5f604051602001610093906102cf565b6040516020818303038152906040528051906020012090505f805f805f9054906101000a900473ffffffffffffffffffffffffffffffffffffffff1673ffffffffffffffffffffffffffffffffffffffff166354f6127f856040518263ffffffff1660e01b815260040161010791906102fb565b606060405180830381865afa158015610122573d5f803e3d5ffd5b505050506040513d601f19601f820116820180604052508101906101469190610380565b9250925092506001151583151514610193576040517f08c379a000000000000000000000000000000000000000000000000000000000815260040161018a9061042a565b60405180910390fd5b6078426101a09190610475565b8210156101e2576040517f08c379a00000000000000000000000000000000000000000000000000000000081526004016101d9906104f2565b60405180910390fd5b50505050565b5f73ffffffffffffffffffffffffffffffffffffffff82169050919050565b5f819050919050565b5f61022a610225610220846101e8565b610207565b6101e8565b9050919050565b5f61023b82610210565b9050919050565b5f61024c82610231565b9050919050565b61025c81610242565b82525050565b5f6020820190506102755f830184610253565b92915050565b5f81905092915050565b7f4254432f555344000000000000000000000000000000000000000000000000005f82015250565b5f6102b960078361027b565b91506102c482610285565b600782019050919050565b5f6102d9826102ad565b9150819050919050565b5f819050919050565b6102f5816102e3565b82525050565b5f60208201905061030e5f8301846102ec565b92915050565b5f80fd5b5f8115159050919050565b61032c81610318565b8114610336575f80fd5b50565b5f8151905061034781610323565b92915050565b5f819050919050565b61035f8161034d565b8114610369575f80fd5b50565b5f8151905061037a81610356565b92915050565b5f805f6060848603121561039757610396610314565b5b5f6103a486828701610339565b93505060206103b58682870161036c565b92505060406103c68682870161036c565b9150509250925092565b5f82825260208201905092915050565b7f636f756c64206e6f7420676574207072696365000000000000000000000000005f82015250565b5f6104146013836103d0565b915061041f826103e0565b602082019050919050565b5f6020820190508181035f83015261044181610408565b9050919050565b7f4e487b71000000000000000000000000000000000000000000000000000000005f52601160045260245ffd5b5f61047f8261034d565b915061048a8361034d565b92508282039050818111156104a2576104a1610448565b5b92915050565b7f707269636520746f6f206f6c64000000000000000000000000000000000000005f82015250565b5f6104dc600d836103d0565b91506104e7826104a8565b602082019050919050565b5f6020820190508181035f830152610509816104d0565b905091905056fea264697066735822122011168c5e675e975f81051eeb07e1dfffbabc71990820eec957d87008110204d564736f6c63430008150033",
  "immutableReferences": {},
  "source": "//SPDX-License-Identifier: MIT\r\n\r\npragma solidity ^0.8.0;\r\nimport './IOracle.sol';\r\n\r\n\r\ncontract Consumer {\r\n    IOracle public oracle;\r\n    constructor (IOracle _oracle) {\r\n        oracle = _oracle;\r\n    }\r\n\r\n    function foo() external view {\r\n        bytes32 key = keccak256(abi.encodePacked('BTC/USD'));\r\n        (bool result, uint date, uint payload) = oracle.getData(key);\r\n        require(result == true, 'could not get price');\r\n        require( date >= block.timestamp - 2 minutes, 'price too old');\r\n        // do something with the price \r\n\r\n\r\n   \r\n    }\r\n\r\n\r\n\r\n\r\n}\r\n",
  "sourcePath": "C:\\Users\\WENCIO DANIEL\\Documents\\eattheblocks_projects\\oracle\\contracts\\Consumer.sol",
  "compiler": {
    "name": "solc",
    "version": "0.8.21+commit.d9974bed.Emscripten.clang"
  },
  "schemaVersion": "3.4.16",
  "updatedAt": "2024-08-06T01:59:48.908Z",
  "devdoc": {
    "kind": "dev",
    "methods": {},
    "version": 1
  },
  "userdoc": {
    "kind": "user",
    "methods": {},
    "version": 1
  }
}