{
  "contractName": "Oracle",
  "abi": [
    {
      "inputs": [
        {
          "internalType": "address",
          "name": "_admin",
          "type": "address"
        }
      ],
      "stateMutability": "nonpayable",
      "type": "constructor"
    },
    {
      "inputs": [],
      "name": "admin",
      "outputs": [
        {
          "internalType": "address",
          "name": "",
          "type": "address"
        }
      ],
      "stateMutability": "view",
      "type": "function"
    },
    {
      "inputs": [
        {
          "internalType": "bytes32",
          "name": "",
          "type": "bytes32"
        }
      ],
      "name": "data",
      "outputs": [
        {
          "internalType": "uint256",
          "name": "date",
          "type": "uint256"
        },
        {
          "internalType": "uint256",
          "name": "payload",
          "type": "uint256"
        }
      ],
      "stateMutability": "view",
      "type": "function"
    },
    {
      "inputs": [
        {
          "internalType": "address",
          "name": "",
          "type": "address"
        }
      ],
      "name": "reporters",
      "outputs": [
        {
          "internalType": "bool",
          "name": "",
          "type": "bool"
        }
      ],
      "stateMutability": "view",
      "type": "function"
    },
    {
      "inputs": [
        {
          "internalType": "address",
          "name": "reporter",
          "type": "address"
        },
        {
          "internalType": "bool",
          "name": "isReporter",
          "type": "bool"
        }
      ],
      "name": "updateReporter",
      "outputs": [],
      "stateMutability": "nonpayable",
      "type": "function"
    },
    {
      "inputs": [
        {
          "internalType": "bytes32",
          "name": "key",
          "type": "bytes32"
        },
        {
          "internalType": "uint256",
          "name": "payload",
          "type": "uint256"
        }
      ],
      "name": "updateData",
      "outputs": [],
      "stateMutability": "nonpayable",
      "type": "function"
    },
    {
      "inputs": [
        {
          "internalType": "bytes32",
          "name": "key",
          "type": "bytes32"
        }
      ],
      "name": "getData",
      "outputs": [
        {
          "internalType": "bool",
          "name": "result",
          "type": "bool"
        },
        {
          "internalType": "uint256",
          "name": "date",
          "type": "uint256"
        },
        {
          "internalType": "uint256",
          "name": "payload",
          "type": "uint256"
        }
      ],
      "stateMutability": "view",
      "type": "function"
    }
  ],
  "bytecode": "0x608060405234801561000f575f80fd5b5060405161086d38038061086d833981810160405281019061003191906100d4565b805f806101000a81548173ffffffffffffffffffffffffffffffffffffffff021916908373ffffffffffffffffffffffffffffffffffffffff160217905550506100ff565b5f80fd5b5f73ffffffffffffffffffffffffffffffffffffffff82169050919050565b5f6100a38261007a565b9050919050565b6100b381610099565b81146100bd575f80fd5b50565b5f815190506100ce816100aa565b92915050565b5f602082840312156100e9576100e8610076565b5b5f6100f6848285016100c0565b91505092915050565b6107618061010c5f395ff3fe608060405234801561000f575f80fd5b5060043610610060575f3560e01c80630147fb0c146100645780631ec6e24f146100955780632cc1cd9e146100b157806354f6127f146100e1578063a8200ab714610113578063f851a4401461012f575b5f80fd5b61007e600480360381019061007991906103fc565b61014d565b60405161008c92919061043f565b60405180910390f35b6100af60048036038101906100aa91906104f5565b61016d565b005b6100cb60048036038101906100c69190610533565b610252565b6040516100d8919061056d565b60405180910390f35b6100fb60048036038101906100f691906103fc565b61026f565b60405161010a93929190610586565b60405180910390f35b61012d600480360381019061012891906105e5565b6102d3565b005b6101376103a2565b6040516101449190610632565b60405180910390f35b6002602052805f5260405f205f91509050805f0154908060010154905082565b5f8054906101000a900473ffffffffffffffffffffffffffffffffffffffff1673ffffffffffffffffffffffffffffffffffffffff163373ffffffffffffffffffffffffffffffffffffffff16146101fa576040517f08c379a00000000000000000000000000000000000000000000000000000000081526004016101f1906106a5565b60405180910390fd5b8060015f8473ffffffffffffffffffffffffffffffffffffffff1673ffffffffffffffffffffffffffffffffffffffff1681526020019081526020015f205f6101000a81548160ff0219169083151502179055505050565b6001602052805f5260405f205f915054906101000a900460ff1681565b5f805f8060025f8681526020019081526020015f205f01540361029a575f805f9250925092506102cc565b600160025f8681526020019081526020015f205f015460025f8781526020019081526020015f20600101549250925092505b9193909250565b6001151560015f3373ffffffffffffffffffffffffffffffffffffffff1673ffffffffffffffffffffffffffffffffffffffff1681526020019081526020015f205f9054906101000a900460ff16151514610363576040517f08c379a000000000000000000000000000000000000000000000000000000000815260040161035a9061070d565b60405180910390fd5b60405180604001604052804281526020018281525060025f8481526020019081526020015f205f820151815f0155602082015181600101559050505050565b5f8054906101000a900473ffffffffffffffffffffffffffffffffffffffff1681565b5f80fd5b5f819050919050565b6103db816103c9565b81146103e5575f80fd5b50565b5f813590506103f6816103d2565b92915050565b5f60208284031215610411576104106103c5565b5b5f61041e848285016103e8565b91505092915050565b5f819050919050565b61043981610427565b82525050565b5f6040820190506104525f830185610430565b61045f6020830184610430565b9392505050565b5f73ffffffffffffffffffffffffffffffffffffffff82169050919050565b5f61048f82610466565b9050919050565b61049f81610485565b81146104a9575f80fd5b50565b5f813590506104ba81610496565b92915050565b5f8115159050919050565b6104d4816104c0565b81146104de575f80fd5b50565b5f813590506104ef816104cb565b92915050565b5f806040838503121561050b5761050a6103c5565b5b5f610518858286016104ac565b9250506020610529858286016104e1565b9150509250929050565b5f60208284031215610548576105476103c5565b5b5f610555848285016104ac565b91505092915050565b610567816104c0565b82525050565b5f6020820190506105805f83018461055e565b92915050565b5f6060820190506105995f83018661055e565b6105a66020830185610430565b6105b36040830184610430565b949350505050565b6105c481610427565b81146105ce575f80fd5b50565b5f813590506105df816105bb565b92915050565b5f80604083850312156105fb576105fa6103c5565b5b5f610608858286016103e8565b9250506020610619858286016105d1565b9150509250929050565b61062c81610485565b82525050565b5f6020820190506106455f830184610623565b92915050565b5f82825260208201905092915050565b7f6f6e6c792061646d696e000000000000000000000000000000000000000000005f82015250565b5f61068f600a8361064b565b915061069a8261065b565b602082019050919050565b5f6020820190508181035f8301526106bc81610683565b9050919050565b7f6f6e6c79207265706f72746572000000000000000000000000000000000000005f82015250565b5f6106f7600d8361064b565b9150610702826106c3565b602082019050919050565b5f6020820190508181035f830152610724816106eb565b905091905056fea2646970667358221220c5e0fb9e499849fe10e29d3078fc8a248c15a6d6f8a229f39a50acf382accf3464736f6c63430008150033",
  "immutableReferences": {},
  "source": "//SPDX-License-Identifier: MIT\r\npragma solidity ^0.8.0;\r\n\r\ncontract Oracle{\r\n    struct Data{\r\n        uint date;\r\n        uint payload;\r\n    }\r\n\r\n    address public admin;\r\n    mapping(address => bool) public reporters;\r\n    mapping (bytes32 => Data) public data;\r\n\r\n    constructor (address _admin){\r\n        admin = _admin;\r\n    }\r\n\r\n    function updateReporter(address reporter, bool isReporter) external{\r\n        require(msg.sender == admin, \"only admin\");\r\n        reporters[reporter] = isReporter;\r\n    }\r\n\r\n    function updateData(bytes32 key, uint payload) external{\r\n        require(reporters[msg.sender] == true, \"only reporter\");\r\n        data[key] = Data(block.timestamp,payload);\r\n    }\r\n\r\n    function getData(bytes32 key)\r\n    external\r\n    view\r\n    returns(bool result, uint date, uint payload){\r\n        if(data[key].date == 0){\r\n            return(false,0,0);\r\n\r\n        }\r\n        return(true,data[key].date,data[key].payload);\r\n\r\n    }\r\n\r\n\r\n\r\n\r\n}",
  "sourcePath": "C:\\Users\\WENCIO DANIEL\\Documents\\eattheblocks_projects\\oracle\\contracts\\Oracle.sol",
  "compiler": {
    "name": "solc",
    "version": "0.8.21+commit.d9974bed.Emscripten.clang"
  },
  "schemaVersion": "3.4.16",
  "updatedAt": "2024-08-06T01:59:48.913Z",
  "devdoc": {
    "kind": "dev",
    "methods": {},
    "version": 1
  },
  "userdoc": {
    "kind": "user",
    "methods": {},
    "version": 1
  }
}